:020000040000FA
:100000000C9481000C94A9000C94A9000C94A900F4
:100010000C94A9000C94A9000C94A9000C94A900BC
:100020000C94A9000C94A9000C94A9000C94A900AC
:100030000C94A9000C94A9000C94A9000C94A9009C
:100040000C941C0B0C94A9000C94EA0A0C94C40A9E
:100050000C94A9000C94A9000C94A9000C94A9007C
:100060000C94A9000C94A9004E414E494E49545994
:10007000494E46CDCCCC3D0AD7233C17B7D1387773
:10008000CC2B329595E6241FB14F0A000020410089
:1000900000C84200401C4620BCBE4CCA1B0E5AAED3
:1000A000C59D7400000000240027002A0000000005
:1000B00000250028002B0000000000230026002956
:1000C0000004040404040404040202020202020301
:1000D000030303030301020408102040800102040B
:1000E000081020010204081020000000080002018E
:1000F00000000304070000000000000000001310CF
:10010000401011241FBECFEFD8E0DEBFCDBF23E0EB
:10011000A4E5B2E001C01D92AC32B207E1F712E0F3
:10012000A0E0B1E0EEE3FEE202C005900D92A4353E
:10013000B107D9F710E0C0E8D0E004C02197FE0174
:100140000E94E214CF37D107C9F70E94660B0C94C6
:1001500012170C9400000895AF92BF92CF92DF92D5
:10016000EF92FF920F931F93CF93DF936C017B016C
:100170008B01040F151FEB015E01AE18BF08C017FD
:10018000D10759F06991D601ED91FC910190F08170
:10019000E02DC6010995892B79F7C501DF91CF9133
:1001A0001F910F91FF90EF90DF90CF90BF90AF9095
:1001B0000895FC01538D448D252F30E0842F90E06D
:1001C000821B930B541710F0CF9608950197089552
:1001D000FC01918D828D981761F0A28DAE0FBF2F1B
:1001E000B11D5D968C91928D9F5F9F73928F90E071
:1001F00008958FEF9FEF08952FB7F89480918502AF
:1002000090918602A0918702B09188022FBF8093BF
:10021000910290939202A0939302B093940289E882
:1002200092E00E94E80097FF26C02FB7F8948091D3
:10023000850290918602A0918702B09188022FBF1B
:1002400040919102509192026091930270919402B8
:10025000841B950BA60BB70B40918D0250918E021B
:1002600060918F027091900284179507A607B707D7
:10027000B0F28FEF9FEF0895FC01918D828D98175A
:1002800031F0828DE80FF11D858D90E008958FEF9C
:100290009FEF0895FC01918D228D892F90E0805C65
:1002A0009F4F821B91098F739927089589E892E0E7
:1002B0000E944A0121E0892B09F420E0822F089551
:1002C00080E090E0892B29F00E94560181110C9466
:1002D00000000895FC01A48DA80FB92FB11DA35AE9
:1002E000BF4F2C91848D90E001968F739927848F56
:1002F000A689B7892C93A089B1898C918370806479
:100300008C93938D848D981306C00288F389E02D19
:1003100080818F7D80830895EF92FF920F931F93CA
:10032000CF93DF93EC0181E0888F9B8D8C8D9813A8
:100330001AC0E889F989808185FF15C09FB7F894B4
:10034000EE89FF896083E889F98980818370806400
:1003500080839FBF81E090E0DF91CF911F910F914B
:10036000FF90EF900895F62E0B8D10E00F5F1F4F5A
:100370000F731127E02E8C8D8E110CC00FB607FC69
:10038000FACFE889F989808185FFF5CFCE010E94F7
:100390006A01F1CFEB8DEC0FFD2FF11DE35AFF4FFA
:1003A000F0829FB7F8940B8FEA89FB898081806285
:1003B000CFCFCF93DF93EC01888D8823B9F0AA8942
:1003C000BB89E889F9898C9185FD03C0808186FD10
:1003D0000DC00FB607FCF7CF8C9185FFF2CF80815F
:1003E00085FFEDCFCE010E946A01E9CFDF91CF9169
:1003F0000895833081F028F4813099F08230A9F09B
:1004000008958730A9F08830C9F08430B1F4809124
:1004100080008F7D03C0809180008F778093800063
:10042000089584B58F7784BD089584B58F7DFBCF03
:100430008091B0008F778093B00008958091B000D4
:100440008F7DF9CFCF93DF93282F30E0F901E7516B
:10045000FF4F8491F901EB52FF4FD491F901EF5313
:10046000FF4FC491CC23A1F081110E94F901EC2F20
:10047000F0E0EE0FFF1FE954FF4FA591B491EC910E
:10048000ED2381E090E009F480E0DF91CF910895C1
:1004900080E090E0FACF1F93CF93DF93282F30E0D6
:1004A000F901E751FF4F8491F901EB52FF4FD491CD
:1004B000F901EF53FF4FC491CC23A9F0162F8111FE
:1004C0000E94F901EC2FF0E0EE0FFF1FE355FF4F04
:1004D000A591B4918FB7F894EC91111108C0D09503
:1004E000DE23DC938FBFDF91CF911F910895DE2B28
:1004F000F8CF1F93CF93DF93C82F162F882339F09F
:10050000809115018230A9F5D0E0C130A1F480912D
:1005100013018F3F59F00E942202019739F460E0E5
:10052000809113010E944B02D1E001C0D0E0809184
:1005300015018230D1F4CD7FC1F4809114018F3F39
:10054000A1F00E942202019781F460E080911401E1
:100550000E944B02112369F080911601882369F0F3
:100560008BEB92E10197F1F704C0112311F0D11147
:10057000F3CFDF91CF911F9108958BE193E0F2CFFC
:10058000CF93DF9390E0FC01EB52FF4F24918F5308
:100590009F4FFC0184918823D1F090E0880F991F30
:1005A000FC01ED55FF4FA591B491FC01E355FF4FC0
:1005B000C591D49161110EC09FB7F8948C91E22F30
:1005C000E0958E238C932881E223E8839FBFDF91FF
:1005D000CF9108958FB7F894EC91E22BEC938FBFF5
:1005E000F6CF809113018F3F31F060E00E94C0028E
:1005F0008FEF80931301809114018F3F31F060E001
:100600000E94C0028FEF809314011092150108958B
:100610001F93CF93DF93182FEB0161E00E94C0027C
:10062000209739F460E0812FDF91CF911F910C94D6
:100630004B02CF3FD10511F461E0F5CFE12FF0E09F
:10064000E751FF4FE491E33031F140F4E130B1F094
:10065000E230E1F0C038D1057CF7E4CFE73029F192
:10066000E83059F1E430B1F78091800080628093E6
:100670008000D0938B00C0938A0004C084B580684A
:1006800084BDC7BDDF91CF911F91089584B580626D
:1006900084BDC8BDF7CF80918000806880938000C2
:1006A000D0938900C0938800EDCF8091B00080681E
:1006B0008093B000C093B300E5CF8091B00080621A
:1006C0008093B000C093B400DDCF3FB7F894809121
:1006D000550290915602A0915702B091580226B54A
:1006E000A89B05C02F3F19F00196A11DB11D3FBF6A
:1006F000BA2FA92F982F8827BC01CD01620F711D39
:10070000811D911D42E0660F771F881F991F4A9532
:10071000D1F708957F928F929F92AF92BF92CF921E
:10072000DF92EF92FF920F931F93CF93DF938C0191
:10073000C62FD42F20910B0130910C0121153105CA
:1007400039F080910A01813089F0823009F482C049
:10075000DF91CF911F910F91FF90EF90DF90CF909D
:10076000BF90AF909F908F907F900895F62E8091CC
:100770000D01F81618F5CF2CD12C80911001909115
:100780001101F601EE0FFF1FE00FF11F918380832F
:10079000E0910B01F0910C01EC0DFD1D61E08081F9
:1007A0000E94C002E0910B01F0910C01EC0DFD1DC7
:1007B00061E080810E944B02FD0ED9CF83E290E080
:1007C0000197F1F7F8940E9465034B01FC2E80918C
:1007D0000D01F81660F4E0910B01F0910C01EF0DA2
:1007E000F11D60E080810E94C002FD0EF0CF789480
:1007F000D12CC12C8091100190911101C816D906FD
:1008000008F0A6CFF8940E9465036B01C818D908B8
:100810007C2E80910D017816D8F4E72CF12CE09114
:100820000B01F0910C01EE0DFF1D80810E94220250
:10083000892B61F4EE0CFF1CF801EE0DFF1D808189
:100840009181C816D90610F4D182C0827D0EE1CF05
:100850007894D0CF862F90910D01891750F4E82F0E
:10086000F0E0EE0FFF1FE00FF11F118210828D0FDD
:10087000F2CF40E080911201481770F59C2F8091D3
:100880000D01981738F5E92FF0E0D901AE0FBF1F21
:100890008C918E3008F08E508770806480937C003D
:1008A00080917A00806480937A0080917A0086FD3E
:1008B000FCCFA091780060917900EE0FFF1FE00F50
:1008C000F11FB62F608171816A0F7B1F7183608376
:1008D0009D0FD5CF4F5FCECF80910D01C81708F087
:1008E00037CFEC2FF0E0EE0FFF1FE00FF11F60910C
:1008F000120170E0CB019595879520813181820F9F
:10090000931F0E948D1471836083CD0FE5CF8F926A
:100910009F92AF92BF92CF92DF92EF92FF924B01E4
:100920005C010E9465036B017C010E9465036C19E8
:100930007D098E099F09683E734081059105A8F3E2
:1009400021E0821A9108A108B10888EEC80E83E060
:10095000D81EE11CF11C81149104A104B10429F7F3
:10096000FF90EF90DF90CF90BF90AF909F908F90CF
:10097000089570E060E085E00E94080370E060E0A8
:1009800086E00E94080360E083E00E944B0260E082
:1009900084E00E944B0260E087E00E944B0260E02E
:1009A00088E00E944B0260E082E00C944B020F93BF
:1009B0001F93CF93DF938C01EB0161E082E00E94F3
:1009C0004B0217FD1EC061E083E00E944B0260E015
:1009D00084E00E944B02B80185E00E940803D7FD25
:1009E0001DC061E087E00E944B0260E088E00E9449
:1009F0004B02BE0186E0DF91CF911F910F910C94C5
:100A0000080360E083E00E944B0261E084E00E9402
:100A10004B0266277727601B710BDECF60E087E013
:100A20000E944B0261E088E00E944B026627772714
:100A30006C1B7D0BDFCFFC01079708F047C0CB0193
:100A4000BA01EB5DFA4F0C94E2142C0535053E0516
:100A500047054E0555055E05609367027093680271
:100A60008093690290936A02089560936302709381
:100A700064028093650290936602089560935F021A
:100A800070936002809361029093620208950E94C5
:100A90004D14709372026093710208950E944D1478
:100AA00070935A0260935902089560935B027093A9
:100AB0005C0280935D0290935E02089560936D02E4
:100AC00070936E0280936F02909370020895CF929C
:100AD000DF92EF92FF92CF93DF93C82F80911601A0
:100AE000882369F08C2F0E942202019741F460E074
:100AF0008C2F0E944B028BEB92E10197F1F761E0A2
:100B00008C2F0E944B020E9465036B01809116019D
:100B10008823A9F080911701882389F0F894D0E008
:100B200080911701D81750F460E08C2F0E944B027F
:100B300061E08C2F0E944B02DF5FF2CF7894C601F8
:100B4000DF91CF91FF90EF90DF90CF9008950F93BA
:100B50001F93CF93DF93C82F882359F180911501FC
:100B6000823029F1D0E0809115018230D1F5CD7F1E
:100B7000C1F5809114018F3FA1F190911601992345
:100B800061F1809114010E9467058C01809116012A
:100B9000882371F1C3E2D0E00E946503601B710BF2
:100BA0006C32714000F5CE010197F1F7F5CFC130FD
:100BB000C9F6809113018F3FA9F2909116019923F4
:100BC00039F0809113010E9467058C01D1E0CBCFF1
:100BD0000E942202892BA9F3C5CF0E942202892BF1
:100BE00081F2D111D3CFDF91CF911F910F91089551
:100BF0008BE193E00197F1F7F6CFFC010190002023
:100C0000E9F73197AF01481B590BBC0189E892E025
:100C10000C94AC008F929F92AF92BF920F931F9350
:100C2000CF93DF93CDB7DEB7A1970FB6F894DEBFB1
:100C30000FBECDBF19A2423008F44AE08E010F5D0D
:100C40001F4F842E912CB12CA12CA50194010E9440
:100C5000A114E62FB901CA01EA30F4F4E05DD8012D
:100C6000EE938D01232B242B252B79F790E080E048
:100C7000109719F0CD010E94FD05A1960FB6F894CA
:100C8000DEBF0FBECDBFDF91CF911F910F91BF90FF
:100C9000AF909F908F900895E95CE1CF4F925F9263
:100CA0006F927F928F929F92AF92BF92CF92DF927C
:100CB000EF92FF921F93CF93DF936B017C01D42FB0
:100CC000AC019B010E9488148823D9F086E591E04D
:100CD0000E94FD05EC0182E691E00E94FD058C0F6B
:100CE0009D1FDF91CF911F91FF90EF90DF90CF90EC
:100CF000BF90AF909F908F907F906F905F904F903C
:100D0000089546015701E894B7F82FEF3FEF4FE7FA
:100D10005FE7C501B4010E94881481110DC02FEF57
:100D20003FEF4FE75FE7C501B4010E94E0111816DD
:100D30001CF48AE591E0CCCF2FEF3FEF4FE75FE463
:100D4000C701B6010E94831418161CF48EE591E0C9
:100D5000BFCF2FEF3FEF4FE75FECC701B6010E9417
:100D6000E01187FDF3CF20E030E0A901C701B60113
:100D70000E94E011B12CA12C87FF0AC06DE289E826
:100D800092E00E948C015C01F7FAF094F7F8F0947D
:100D90001D2F60E070E080E09FE3C0E020E030E0E5
:100DA00040E251E40E94DB13CF5FCD17B8F3A701F7
:100DB00096010E946F136B017C010E9454142B0159
:100DC0003C010E94E5119B01AC01C701B6010E94E4
:100DD0006E136B017C014AE0C301B2010E940A0656
:100DE000EC016EE289E892E00E948C01C80FD91FE5
:100DF000CA0DDB1D115008F46ECF20E030E040E258
:100E000051E4C701B6010E9446124B015C010E94E9
:100E100054146B01F12CE12C4AE0C701B6010E9489
:100E20000A06C80FD91FC701B6010E94E5119B0130
:100E3000AC01C501B4010E946E136B017C01DACFD5
:100E4000CF92DF92EF92FF92CF93DF936C01990FD5
:100E5000EE08FF08F7FE1FC06DE289E892E00E94ED
:100E60008C01EC0166277727CB016C197D098E096F
:100E70009F094AE00E940A06C80FD91F82E691E046
:100E80000E94FD058C0F9D1FDF91CF91FF90EF9089
:100E9000DF90CF9008954AE0C701B6010E940A068C
:100EA000EC01ECCFCF93DF930E94FD05EC0182E6CD
:100EB00091E00E94FD058C0F9D1FDF91CF91089559
:100EC00085E691E00E94520789E791E00E94FD05C6
:100ED00060916702709168028091690290916A0244
:100EE00042E050E00E944E068EE791E00E94FD0530
:100EF0006091630270916402809165029091660234
:100F000042E050E00E944E0683E891E00E94FD0519
:100F100060915F0270916002809161029091620223
:100F200042E050E00E944E0688E891E00E94FD05F4
:100F300080917102909172020E94200783E991E0F2
:100F40000E94FD058091590290915A020E9420074B
:100F500088EA91E00E94FD0560915B0270915C025D
:100F600080915D0290915E0246E050E00E944E0644
:100F700081EC91E00E94FD0560916D0270916E021E
:100F800080916F029091700242E050E00C944E0606
:100F90000F931F93CF93DF93EC0188819981009782
:100FA00059F02A813B812617370730F081E0DF9125
:100FB000CF911F910F9108958B016F5F7F4F0E941A
:100FC0001416009759F0998388831B830A832C8118
:100FD0003D81232B59F7FC011082E8CF80E0E7CF59
:100FE0008F929F92AF92BF92CF92DF92EF92FF9239
:100FF0000F931F93CF93DF93CDB7DEB7C85FD109AF
:101000000FB6F894DEBF0FBECDBF8C01D62EDC012B
:101010008C91811157C01396ED90FC9060910D0159
:1010200070E0660F771FC7010E941416F8019483C1
:101030008383892BB9F4C7010E948B15C850DF4FF9
:101040000FB6F894DEBF0FBECDBFDF91CF911F91D9
:101050000F91FF90EF90DF90CF90BF90AF909F9057
:101060008F900895E180F28060910D0170E0660F2D
:10107000771FC7010E941416AC01F8019283818387
:1010800090E041155105B9F280910D019817B8F41F
:10109000292F30E0220F331FD8011396ED91FC91D8
:1010A000E20FF31F11821082609110017091110103
:1010B000240F351FF901718360839F5FE5CF81E0C5
:1010C000D8018C93C12C43E2E42EF12CB1E0DB1665
:1010D00038F0E2E0ED15D0F5F3E0DF1609F46DC06D
:1010E00061E080E00E94790241E060E0CE01855439
:1010F0009F4F0E948A03A0900D014E018FE3880E3E
:10110000911CFE01E358FF4F9E0125543F4FB12C27
:10111000AF01AB1409F4A1C0D9018D919D919D013E
:10112000CC2009F492C0608171816817790708F4B6
:101130008CC0D4016D917C918617970708F489C003
:10114000B394B2E08B0E911C3296E3CF80E00E9404
:10115000A70541E060E0CE0185549F4F0E948A03BD
:1011600061E080E00E947902A2E0DA12C4CF41E09F
:1011700060E0CE0101960E948A0370910D012091DA
:10118000100130911101FE01E554FF4FDE0111966F
:1011900060E0761709F4AFCF4D915D918081918128
:1011A000820F931F841B950B2817390708F44AC038
:1011B000918380836F5F3296ECCF60E082E00E9483
:1011C00079020E9465034B0181E00E94A70580918E
:1011D0001601882359F00E94650368197909603B5C
:1011E000744020F4C7010197F1F7F5CF42E060E0C9
:1011F000CE0185549F4F0E948A0360E081E00E94E7
:1012000079020E9465034B0182E00E94A70580914C
:101210001601882359F00E94650368197909603B1B
:10122000744020F4C7010197F1F7F5CF42E061E087
:10123000CE0185549F4F0E948A0361E080E00E94A6
:10124000790259CF31832083B5CF91838083C11038
:1012500070CFD4018D939C9373CFC394EAE0CE12E8
:1012600035CF20E080910D01281708F0E7CE822FBE
:1012700090E0880F991FE1E0F0E0EC0FFD1FE80F10
:10128000F91F66AD77ADD8011396ED91FC91E80F8B
:10129000F91FA081B181A617B70710F4718360838D
:1012A000FA01E80FF91F60817181D8011196ED9163
:1012B000FC91E80FF91F808191816817790710F47C
:1012C000718360832F5FCECFFC0180819181009775
:1012D00011F00C948B150895EF92FF920F931F93CA
:1012E000CF93DF93EC017B018A01BA010E94C8070A
:1012F00028813981811114C02115310519F0C901E6
:101300000E948B15198218821D821C821B821A82F0
:10131000CE01DF91CF911F910F91FF90EF90089533
:101320001D830C83B701C9010E94EE16F1CFFB01AA
:1013300001900020E9F73197AF01461B570B0C9441
:101340006C09AF92BF92CF92DF92EF92FF920F9310
:101350001F93CF93DF93EC016B015A01790124179E
:10136000350720F48B2D5901E42EF82E19821882AE
:101370001B821A821D821C8264E671E0CE010E94EB
:101380009709D60114960D911C91A016B10628F567
:10139000E016F10608F48701D601ED91FC91119752
:1013A000E00FF11FF08010826D917C916A0D7B1D22
:1013B00061157105F1F0FB0101900020E9F731970B
:1013C000AF01461B570BCE010E946C09F6018081CC
:1013D0009181080F191FD801FC92CE01DF91CF91A6
:1013E0001F910F91FF90EF90DF90CF90BF90AF9043
:1013F000089588819981009711F00E948B151982B8
:1014000018821D821C821B821A82E0CF7F928F92EB
:101410009F92AF92BF92CF92DF92EF92FF920F9383
:101420001F93CF93DF9300D000D0CDB7DEB710E08D
:1014300000E0F12CE12C0330110509F47AC00CF026
:1014400055C00130110509F462C00230110509F4DC
:1014500067C0609167027091680280916902909103
:101460006A0269837A838B839C83CE0101965C0137
:10147000D12CC12CF50171905F0146018E0C9F1C8F
:10148000C4010E940713781621F0672DC4010E9441
:101490000F13FFEFCF1ADF0A84E0C816D10451F70B
:1014A0000F5F1F4FF70134967F01FCE1EF16F10447
:1014B00011F688EC90E00E9407138A3A09F452C0B2
:1014C0006AEA88EC90E00F900F900F900F90DF91F8
:1014D000CF911F910F91FF90EF90DF90CF90BF9031
:1014E000AF909F908F907F900C940F130530110553
:1014F00081F154F10630110509F0ABCF60916D0216
:1015000070916E0280916F0290917002AACF6091EB
:101510006302709164028091650290916602A1CF8E
:1015200060915F027091600280916102909162020D
:1015300098CF6091710270917202072E000C880B97
:10154000990B0E94E7118DCF6091590270915A0258
:10155000F4CF60915B0270915C0280915D0290918A
:101560005E027FCF0F900F900F900F90DF91CF9181
:101570001F910F91FF90EF90DF90CF90BF90AF90B1
:101580009F908F907F9008951F920F920FB60F92A9
:1015900011242F933F934F935F936F937F938F9378
:1015A0009F93AF93BF93EF93FF9389E892E00E94DC
:1015B0006A01FF91EF91BF91AF919F918F917F91C0
:1015C0006F915F914F913F912F910F900FBE0F90B0
:1015D0001F9018951F920F920FB60F9211242F9300
:1015E0008F939F93EF93FF93E0919902F0919A026A
:1015F0008081E0919F02F091A00282FD1BC090814A
:101600008091A2028F5F8F732091A302821741F015
:10161000E091A202F0E0E757FD4F958F8093A20280
:10162000FF91EF919F918F912F910F900FBE0F908F
:101630001F9018958081F4CF1F920F920FB60F92D2
:1016400011242F933F938F939F93AF93BF938091D8
:10165000850290918602A0918702B0918802309114
:10166000540223E0230F2D3758F50196A11DB11D1B
:10167000209354028093850290938602A093870260
:10168000B09388028091550290915602A091570222
:10169000B09158020196A11DB11D809355029093FF
:1016A0005602A0935702B0935802BF91AF919F91F9
:1016B0008F913F912F910F900FBE0F901F90189513
:1016C00026E8230F0296A11DB11DD2CFCF93DF9341
:1016D000CDB7DEB762970FB6F894DEBF0FBECDBFB1
:1016E000789484B5826084BD84B5816084BD85B5FD
:1016F000826085BD85B5816085BD80916E00816009
:1017000080936E00109281008091810082608093AE
:1017100081008091810081608093810080918000B0
:101720008160809380008091B10084608093B100DB
:101730008091B00081608093B00080917A008460D5
:1017400080937A0080917A00826080937A00809101
:101750007A00816080937A0080917A00806880931B
:101760007A001092C10061E085E00E94C00261E051
:1017700083E00E94C00261E084E00E94C00261E058
:1017800082E00E94C00261E087E00E94C00261E046
:1017900088E00E94C00261E086E00E94C00260E032
:1017A0008DE00E94C00261E08AE00E94C00260E019
:1017B0008AE00E944B02E0919902F0919A0282E045
:1017C0008083E0919502F09196021082E091970259
:1017D000F09198028FEC80831092A102E0919D021B
:1017E000F0919E0286E08083E0919B02F0919C0242
:1017F000808180618083E0919B02F0919C028081D6
:1018000088608083E0919B02F0919C0280818068D7
:101810008083E0919B02F0919C0280818F7D808388
:1018200081E080930A0180910E0190910F019093C5
:1018300011018093100100910B0110910C0168E0DF
:1018400070E0C8010E94141690930C0180930B0164
:10185000892B09F0C6C0C8010E948B150E94F102B5
:101860008CE08093130161E00E94C00281E08093CC
:10187000150188EC90E00E9407135AE3E52E51E031
:10188000F52E10E000E08A3A09F0C3C09E012F5FF8
:101890003F4F5901CC24DD24C21AD30A10E000E0E6
:1018A0004E0135E0830E911C7501C6018E0D9F1D02
:1018B0000E940713D7018D937D018A169B06A9F715
:1018C00049815A816B817C81C8010E941B050F5F91
:1018D0001F4FB4E0CB0ED11C0730110529F70E9431
:1018E000600768EB7BE080E090E00E94870485ED74
:1018F00091E00E94520700E911E061E080E091E090
:101900000E94F0078AE00E94220261E0892B09F020
:1019100060E08AE00E944B0262E370E080E090E0C9
:101920000E94870465E070E080E090E00E948704F8
:101930000150110911F76AE67FEF8AE69FEF0E94D6
:10194000D70460ED77E080E090E00E9487040E9479
:10195000B90461E08AE00E944B028CEE91E00E94A3
:10196000520748EE242E43E0342E89E892E00E948C
:101970004A01892B09F490C162E370E080E090E0B5
:101980000E9487041E861D86188A1F861A8A198A55
:1019900064E671E0CE010D960E9497090E94FC005A
:1019A00097FD48C08A30910509F444C089831A82A2
:1019B00009891A890F5F1F4FB801CE010D960E9449
:1019C000C807882359F32D853E8589899A89BE01E8
:1019D0006F5F7F4F820F931F0E94EE161A8B098B49
:1019E000DDCFA2E3B1E090E080E02D91E0910B012A
:1019F000F0910C01E80FF91F2083019688309105C2
:101A0000A1F788E080930D0110920001109205016A
:101A100025CFF70141915191619171917F01C801E9
:101A20000E941B050F5F1F4F0730110591F70E94A1
:101A3000060A55CFAD84BE84A114B10439F00989DA
:101A40001A8975010115110509F075C01A821982EC
:101A50001C821B821E821D8260E072E0CE01019614
:101A60000E9497094D815E8189899A89841795071B
:101A700070F08D859E85009751F069817A8161159E
:101A8000710529F00E94F51611E0892B09F010E08C
:101A9000CE0101960E94640949895A89112309F4EB
:101AA000EAC041155105B9F064E070E044305105D9
:101AB00008F4BA018D859E85461B570B5A8B498BBE
:101AC000680F791F0E940317ED85FE8589899A8921
:101AD000E80FF91F1082F12CE12C89889A88811473
:101AE000910409F4C1C0F7E0EF16F10409F4BCC099
:101AF000AD84BE846CE270E0C5010E94DA160097E6
:101B000039F08C010A191B090F3F100709F049C071
:101B100018861F821A8619861C861B86A114B1049A
:101B200031F0A401B501CE0107960E946C090FEFB8
:101B30001FEF41C074014701FFEF8F1A9F0AD701C1
:101B40008C91082E000C990B0E94BF11892B91F7E4
:101B5000015011090A0D1B1DF8018081082E000C8F
:101B6000990B0E94BF11892B31F00E151F0518F03B
:101B700001501109F1CF0F5F1F4FA8014E195F09E6
:101B80005A8B498BAE14BF0420F4B701C5010E94E3
:101B9000D116ED85FE8589899A89E80FF91F108293
:101BA00055CF980150E040E0BE01635F7F4FCE010A
:101BB00007960E94A1098F81988540E050E0BA0104
:101BC000009721F00E946B10AB01BC01C7010E947D
:101BD0001B050F3F100709F443C029893A89A80162
:101BE0004F5F5F4FBE01635F7F4FCE0101960E9442
:101BF000A1098D859E85009711F169817A81611512
:101C00007105D9F04F8558892D813E8142175307C0
:101C1000A0F00E94EE168D819E819A8B898B1E8288
:101C20001D82CE0101960E9464094FEFE41AF40A66
:101C3000CE0107960E94640950CF0E948B158981BE
:101C40009A819E878D878B819C81988B8F878D81D0
:101C50009E819A8B898B1A8219821C821B82DFCF0C
:101C6000CE0107960E9464090E94060A85E092E070
:101C70000E9452070DC0452B59F00D851E8569E263
:101C800072E0C8010E94E516892BD1F40E9460071A
:101C9000CE010D960E9464098DE00E942202892BDC
:101CA00071F50E94B90480E090E0892B09F45DCEC3
:101CB0000E945601882309F458CE0E94000055CE98
:101CC0006DE272E0C8010E94E5168C01892B01F7D4
:101CD0003AE3E32E31E0F32ED7014D915D916D9102
:101CE0007D917D01C8010E941B050F5F1F4F0730CA
:101CF000110591F70E94060A83E392E0B9CF809123
:101D00000001882309F449C080E00E94A70541E052
:101D100060E085E792E00E948A0361E080E00E9433
:101D2000790280900D0105E712E0A0900301B090C8
:101D30000401E0900101F0900201912C891469F1F5
:101D4000D501ED91FD915D01D7018D919D917D01B1
:101D5000E81BF90BD1F0D8012D913C9150E040E007
:101D6000281B390B41095109A8EEB3E00E941D134D
:101D70009F0150E040E00E94C314293EB3E03B07BE
:101D800014F028EE33E037FF02C030E020E0F80125
:101D9000219331938F019394D1CFA0900D0125E72A
:101DA000E22E22E0F22E10E000E0912C50E040E024
:101DB000412C512C3201B12CA914D9F0D701ED914D
:101DC000FD917D01E93CF10588F4E333F10550F024
:101DD0009F01D8010E94E814460E571E681E791E06
:101DE0004E0F5F1F939408511C4FE6CFBB24B39452
:101DF000EFCF009171021091720280907302909067
:101E00007402B110FAC0EA2DE150FF0B44EF51E02B
:101E1000E49F9001E59F300DF49F300D1124409117
:101E20001801509119014217530768F5C0906D02CF
:101E3000D0906E02E0906F02F0907002B801012E17
:101E4000000C880B990B0E94E711A70196010E94D4
:101E500046120E944D142B0166277727601B710BD9
:101E6000072E000C880B990B0E94E711A701960121
:101E70000E9446120E944D14CB01181419040CF450
:101E8000C9C0B201C8C0E29D7001E39DF00CF29D93
:101E9000F00C1124E114F10449F258E5E5165BE178
:101EA000F50621F28CEAE81A8DE0F80AA0906B02A0
:101EB000B0906C02AE0CBF1C99EEA91693E0B90667
:101EC00024F098EEA92E93E0B92EA8E1AA16ACEF63
:101ED000BA0624F488E1A82E8CEFB82EB0926C02DA
:101EE000A0926B02F0927402E0927302B7010F2C81
:101EF000000C880B990B0E94E7112091670230912A
:101F000068024091690250916A020E9446122B01B8
:101F10003C01B501BB0C880B990B0E94E711209185
:101F200063023091640240916502509166020E9402
:101F300046129B01AC01C301B2010E946F132B0139
:101F40003C01B70168197909072E000C880B990B21
:101F50000E94E71120915F0230916002409161027E
:101F6000509162020E9446129B01AC01C301B20172
:101F70000E946F130E944D144B01EE9CB001EF9C28
:101F8000700D700D1124072E000C880B990B0E9408
:101F9000E71120915B0230915C0240915D0250910B
:101FA0005E020E9446120E944D149801261B370BB8
:101FB00037FD34C0021713070CF49801C901880DCE
:101FC000991D281939094091590250915A02240F3C
:101FD000351F66277727601B710B861797070CF153
:101FE000081719070CF4C80126173707A4F0B90120
:101FF0000217130784F4B8010EC09A0150E040E0C4
:10200000C301B2010E94A1147901309319012093F8
:10201000180140CFC2010E94D70445CE30E020E035
:10202000CDCFCB01E1CFE9E8F2E01382128288EE56
:1020300093E0A0E0B0E084839583A683B78384E235
:1020400091E09183808385EC90E09587848784EC90
:1020500090E09787868780EC90E0918B808B81EC75
:1020600090E0938B828B82EC90E0958B848B86EC56
:1020700090E0978B868B118E128E138E148E08959E
:102080000E94F10280910B0190910C01009711F0D8
:102090000E948B158091030190910401009711F02B
:1020A0000E948B158091080190910901009711F011
:1020B0000E948B158091010190910201009711F00F
:1020C0000E948B158091060190910701009711F0F5
:1020D0000C948B150895662777270C946F10B0E049
:1020E000A0E0E5E7F0E10C942E135C017B016115A3
:1020F000710519F0DB018D939C9385010F5F1F4FD4
:10210000F501D0818D2F90E00E94BF116C01892BC9
:10211000B9F5DD32B9F50F5F1F4FD5011196DC918E
:10212000C1E05801F1E0AF1AB10843E050E060E7C8
:1021300070E0C5010E94C811892B69F5680182E031
:10214000C80ED11C45E050E06BE670E0C6010E946D
:10215000C811892B21F4680197E0C90ED11CE11444
:10216000F10419F0D701CD92DC9260E070E080E8D4
:102170009FEFC111FFC060E070E080E89FE7FAC008
:102180005801BBCFDB3229F485010E5F1F4FF501EB
:10219000D181C0E0C6CF43E050E068E670E0C50101
:1021A0000E94C811892BE9F0F80110E000E020E05E
:1021B00030E0A9015F01B0ED8B2E8D0E89E088150E
:1021C000C8F19C2E689491F88C2F8870C2FF16C0BD
:1021D000811102C00F5F1F4F3196D501DC91C92DCF
:1021E000E9CFE114F10429F00E5F1F4FF7011183CD
:1021F000008360E070E080EC9FE7BCC0882311F0B2
:1022000001501109A5E0B0E00E941D139B01AC0133
:10221000220F331F441F551F280D311D411D511D15
:10222000283999E93907490799E15907A8F2C660A1
:102230009C2ED2CFAEEF8A1206C0C3FD3CC09C2EAE
:10224000689493F8C9CFDF7DD534A9F580818D32AC
:1022500039F4C061DF011296818162E070E006C04E
:10226000DF018B32C1F3119661E070E080535D01B4
:10227000A61AB70A8A30F8F4E0E8CE16ECE0DE06DB
:102280005CF4B601660F771F660F771FC60ED71E68
:10229000CC0CDD1CC80ED11C5D01FFEFAF1ABF0ACC
:1022A0008C9180538A30A8F1C4FF03C0D194C194AB
:1022B000D1080C0D1D1DC1FF09C0E114F10431F05E
:1022C00081E0A81AB108D701AD92BC92CA01B90148
:1022D0000E94E511C370C33009F490584B015C01B2
:1022E00020E030E0A9010E94E011882309F440C0F9
:1022F000CFE9D0E017FF05C0119501951109C7E896
:10230000D0E06E01B8E1CB1AD10880E2E82EF12CC2
:102310000FC0D501B1CFFE01259135914591549162
:102320000E191F09C501B4010E9446124B015C0140
:10233000D501C4010E151F0574F72497F594E79491
:10234000CC16DD06A9F78A2F880F8B2F881F8F3FA9
:1023500049F020E030E0A901C501B4010E94E0117C
:10236000811106C082E290E09093270380932603B8
:10237000C501B401CDB7DEB7ECE00C944A1391115E
:102380000C94B312803219F089508550C8F7089523
:10239000FB01DC014150504088F08D9181341CF0EC
:1023A0008B350CF4805E659161341CF06B350CF458
:1023B000605E861B611171F3990B0895881BFCCF39
:1023C0000E94221208F481E00895E89409C097FB66
:1023D0003EF490958095709561957F4F8F4F9F4FFC
:1023E0009923A9F0F92F96E9BB279395F695879540
:1023F00077956795B795F111F8CFFAF4BB0F11F403
:1024000060FF1BC06F5F7F4F8F4F9F4F16C08823A9
:1024100011F096E911C0772321F09EE8872F762FDF
:1024200005C0662371F096E8862F70E060E02AF020
:102430009A95660F771F881FDAF7880F969587950C
:1024400097F90895990F0008550FAA0BE0E8FEEFE1
:1024500016161706E807F907C0F012161306E40768
:10246000F50798F0621B730B840B950B39F40A2661
:1024700061F0232B242B252B21F408950A2609F43F
:10248000A140A6958FEF811D811D08950E945912CC
:102490000C94CD120E94BF1238F00E94C61220F098
:1024A000952311F00C94B6120C94BC1211240C94C8
:1024B00001130E94DE1270F3959FC1F3950F50E057
:1024C000551F629FF001729FBB27F00DB11D639FE6
:1024D000AA27F00DB11DAA1F649F6627B00DA11D8C
:1024E000661F829F2227B00DA11D621F739FB00D32
:1024F000A11D621F839FA00D611D221F749F3327A2
:10250000A00D611D231F849F600D211D822F762F3A
:102510006A2F11249F5750409AF0F1F088234AF017
:10252000EE0FFF1FBB1F661F771F881F9150504083
:10253000A9F79E3F510580F00C94B6120C9401133C
:102540005F3FE4F3983ED4F3869577956795B7950A
:10255000F795E7959F5FC1F7FE2B880F911D969524
:10256000879597F9089599278827089597F99F6780
:1025700080E870E060E008959FEF80EC089500240B
:102580000A941616170618060906089500240A94D8
:1025900012161306140605060895092E0394000C5E
:1025A00011F4882352F0BB0F40F4BF2B11F460FFED
:1025B00004C06F5F7F4F8F4F9F4F089557FD905816
:1025C000440F551F59F05F3F71F04795880F97FBF7
:1025D000991F61F09F3F79F08795089512161306B1
:1025E0001406551FF2CF4695F1DF08C016161706E0
:1025F0001806991FF1CF8695710561050894089515
:10260000E894BB2766277727CB0197F90895F999B6
:10261000FECF92BD81BDF89A992780B50895262FE7
:10262000F999FECF1FBA92BD81BD20BD0FB6F894B7
:10263000FA9AF99A0FBE019608950E945F13A59F1A
:10264000900DB49F900DA49F800D911D11240895AD
:102650002F923F924F925F926F927F928F929F92B2
:10266000AF92BF92CF92DF92EF92FF920F931F93A0
:10267000CF93DF93CDB7DEB7CA1BDB0B0FB6F89451
:10268000DEBF0FBECDBF09942A88398848885F8491
:102690006E847D848C849B84AA84B984C884DF8002
:1026A000EE80FD800C811B81AA81B981CE0FD11DE6
:1026B0000FB6F894DEBF0FBECDBFED010895A29F07
:1026C000B001B39FC001A39F700D811D1124911D06
:1026D000B29F700D811D1124911D08955058BB2784
:1026E000AA270E9486130C94CD120E94BF1238F0C4
:1026F0000E94C61220F039F49F3F19F426F40C947E
:10270000BC120EF4E095E7FB0C94B612E92F0E9480
:10271000DE1258F3BA17620773078407950720F093
:1027200079F4A6F50C9400130EF4E0950B2EBA2F55
:10273000A02D0B01B90190010C01CA01A0011124C7
:10274000FF27591B99F0593F50F4503E68F11A1673
:10275000F040A22F232F342F4427585FF3CF469504
:1027600037952795A795F0405395C9F77EF41F1626
:10277000BA0B620B730B840BBAF09150A1F0FF0FF0
:10278000BB1F661F771F881FC2F70EC0BA0F621FDC
:10279000731F841F48F4879577956795B795F795CC
:1027A0009E3F08F0B0CF9395880F08F09927EE0F61
:1027B0009795879508950E94EF130C94CD120E946F
:1027C000C61258F00E94BF1240F029F45F3F29F072
:1027D0000C94B61251110C9401130C94BC120E946B
:1027E000DE1268F39923B1F3552391F3951B550B32
:1027F000BB27AA2762177307840738F09F5F5F4FD4
:10280000220F331F441FAA1FA9F335D00E2E3AF012
:10281000E0E832D091505040E695001CCAF72BD02A
:10282000FE2F29D0660F771F881FBB1F261737077B
:102830004807AB07B0E809F0BB0B802DBF01FF27AD
:1028400093585F4F3AF09E3F510578F00C94B612C2
:102850000C9401135F3FE4F3983ED4F3869577958B
:102860006795B795F7959F5FC9F7880F911D969566
:10287000879597F90895E1E0660F771F881FBB1FC2
:10288000621773078407BA0720F0621B730B840B6F
:10289000BA0BEE1F88F7E09508950E9454146894CF
:1028A000B1110C94011308950E94E61288F09F570D
:1028B00098F0B92F9927B751B0F0E1F0660F771F64
:1028C000881F991F1AF0BA95C9F714C0B13091F05A
:1028D0000E940013B1E008950C940013672F782F25
:1028E0008827B85F39F0B93FCCF38695779567951F
:1028F000B395D9F73EF490958095709561957F4F8B
:102900008F4F9F4F08950E94221208F48FEF089571
:102910000E942212880B990B0895AA1BBB1B51E140
:1029200007C0AA1FBB1FA617B70710F0A61BB70B3F
:10293000881F991F5A95A9F780959095BC01CD01E4
:102940000895A1E21A2EAA1BBB1BFD010DC0AA1FF0
:10295000BB1FEE1FFF1FA217B307E407F50720F008
:10296000A21BB30BE40BF50B661F771F881F991F83
:102970001A9469F760957095809590959B01AC01CC
:10298000BD01CF010895052E97FB1EF400940E940F
:10299000DA1457FD07D00E94A11407FC03D04EF4AF
:1029A0000C94DA1450954095309521953F4F4F4F38
:1029B0005F4F089590958095709561957F4F8F4FEB
:1029C0009F4F0895EE0FFF1F0590F491E02D09949D
:1029D0000E945F13B7FF0895821B930B08950F9316
:1029E0001F93CF93DF938230910510F482E090E043
:1029F000E0912A03F0912B0330E020E0B0E0A0E06A
:102A0000309799F42115310509F44AC0281B390B78
:102A100024303105D8F58A819B816115710589F1D2
:102A2000FB0193838283FE0111C0408151810281A9
:102A3000138148175907E0F04817590799F4109780
:102A400061F012960C93129713961C933296CF0155
:102A5000DF91CF911F910F91089500932A03109356
:102A60002B03F4CF2115310551F04217530738F0ED
:102A7000A901DB019A01BD01DF01F801C1CFEF011E
:102A8000F9CF90932B0380932A03CDCFFE01E20F61
:102A9000F31F819391932250310939832883D7CF33
:102AA0002091280330912903232B41F420911C010C
:102AB00030911D01309329032093280320911A019E
:102AC00030911B012115310541F42DB73EB74091DE
:102AD0001E0150911F01241B350BE0912803F0913A
:102AE0002903E217F307A0F42E1B3F0B2817390721
:102AF00078F0AC014E5F5F4F2417350748F04E0F5A
:102B00005F1F5093290340932803819391939FCF94
:102B1000F0E0E0E09CCFCF93DF930097E9F0FC0179
:102B2000329713821282A0912A03B0912B03ED01F8
:102B300030E020E01097A1F420813181820F931FB3
:102B400020912803309129032817390709F061C023
:102B5000F0932903E0932803DF91CF910895EA01D0
:102B6000CE17DF07E8F54A815B819E0141155105CB
:102B7000B1F7E901FB83EA8349915991C40FD51F4D
:102B8000EC17FD0761F4808191810296840F951FF7
:102B9000E90199838883828193819B838A83F0E012
:102BA000E0E012968D919C9113970097B9F52D91C5
:102BB0003C911197CD010296820F931F209128031B
:102BC000309129032817390739F6309751F51092BB
:102BD0002B0310922A03B0932903A0932803BCCFA0
:102BE000D383C28340815181840F951FC817D907B1
:102BF00061F44E5F5F4F88819981480F591F51835F
:102C000040838A819B81938382832115310509F05A
:102C1000B0CFF0932B03E0932A039ECFFD01DC019C
:102C2000C0CF13821282D7CFB0E0A0E0EAE1F6E194
:102C30000C942A138C01009751F4CB010E94EF14DD
:102C40008C01C801CDB7DEB7E0E10C944613FC015E
:102C5000E60FF71F9C0122503109E217F30708F431
:102C60009DC0D901CD91DC911197C617D70798F077
:102C7000C530D10530F3CE0104978617970708F3C6
:102C8000C61BD70B2297C193D1936D937C93CF0131
:102C90000E948B15D6CF5B01AC1ABD0A4C018C0E7D
:102CA0009D1EA0912A03B0912B03512C412CF12C95
:102CB000E12C109731F58091280390912903881514
:102CC000990509F05CC04616570608F058C0809177
:102CD0001A0190911B01009741F48DB79EB7409166
:102CE0001E0150911F01841B950BE817F90708F08E
:102CF00055C0F0932903E0932803F90171836083A1
:102D0000A0CF8D919C91119712966C90129713966B
:102D10007C901397A815B90559F56C0142E0C40ED3
:102D2000D11CCA14DB0420F1AC014A195B09DA0199
:102D30001296159780F06282738251834083D90185
:102D40006D937C93E114F10471F0D7011396FC9319
:102D5000EE93129776CF22968C0F9D1FF9019183E7
:102D60008083F301EFCFF0932B03E0932A0369CF25
:102D70004816590608F42C017D01D3019ACFCB01E6
:102D80000E94EF147C01009749F0AE01B8010E9447
:102D9000D116C8010E948B15870153CF10E000E0C7
:102DA00050CFFB01DC0102C001900D924150504018
:102DB000D8F70895FC018191861721F08823D9F76F
:102DC000992708953197CF010895FB01DC018D917A
:102DD000019080190110D9F3990B0895FB01DC01D2
:102DE00001900D920020E1F70895FB01DC014150B4
:102DF000504030F08D910190801919F40020B9F7FE
:102E0000881B990B0895FB01DC014150504048F0AC
:102E100001900D920020C9F701C01D924150504011
:102E2000E0F7089510E0C0E8D0E004C0FE010E9481
:102E3000E2142196C138D107C9F7F894FFCF0000FA
:102E4000000000000000000000000000C409C409E8
:102E500004FFFF000100000000002C0380000000C0
:102E600000008C01AC00D900D9014A01E8003C0106
:102E70000E0F1011121314150000003F0000000087
:102E800000000000000066430000F04117B7513811
:102E90009A99593F6E616E00696E66006F766600A2
:102EA0000D0A005661726961626C6573206163741A
:102EB00075616C65733A004B703A20004B693A209B
:102EC000004B643A20006D617853706565643A2068
:102ED000004D4F544F525F52494748545F4F46464A
:102EE0005345543A200053504545445F524544559C
:102EF0004354494F4E5F464143544F523A20005489
:102F000055524E5F53504545445F464143544F52DE
:102F10003A200043616C696272616E646F20736570
:102F20006E736F7265732E2E2E0043616C69627230
:102F300061646F20636F6D706C65746F2E00534514
:102F4000543A005661726961626C65732061637402
:102F500075616C697A61646173207920677561724B
:102F600064616461732E00474554005245534554D3
:102F70000056616C6F72657320706F7220646566B5
:102F80006563746F207265737461757261646F73C9
:022F90002E0011
:107E0000112484B714BE81FFF0D085E080938100F7
:107E100082E08093C00088E18093C10086E0809377
:107E2000C20080E18093C4008EE0C9D0259A86E02C
:107E300020E33CEF91E0309385002093840096BBD3
:107E4000B09BFECF1D9AA8958150A9F7CC24DD24C4
:107E500088248394B5E0AB2EA1E19A2EF3E0BF2EE7
:107E6000A2D0813461F49FD0082FAFD0023811F036
:107E7000013811F484E001C083E08DD089C08234E0
:107E800011F484E103C0853419F485E0A6D080C0E4
:107E9000853579F488D0E82EFF2485D0082F10E0AE
:107EA000102F00270E291F29000F111F8ED06801E7
:107EB0006FC0863521F484E090D080E0DECF843638
:107EC00009F040C070D06FD0082F6DD080E0C81688
:107ED00080E7D80618F4F601B7BEE895C0E0D1E017
:107EE00062D089930C17E1F7F0E0CF16F0E7DF06D8
:107EF00018F0F601B7BEE89568D007B600FCFDCFD4
:107F0000A601A0E0B1E02C9130E011968C91119780
:107F100090E0982F8827822B932B1296FA010C0160
:107F200087BEE89511244E5F5F4FF1E0A038BF0790
:107F300051F7F601A7BEE89507B600FCFDCF97BE46
:107F4000E89526C08437B1F42ED02DD0F82E2BD052
:107F50003CD0F601EF2C8F010F5F1F4F84911BD097
:107F6000EA94F801C1F70894C11CD11CFA94CF0C13
:107F7000D11C0EC0853739F428D08EE10CD085E9AC
:107F80000AD08FE07ACF813511F488E018D01DD067
:107F900080E101D065CF982F8091C00085FFFCCF94
:107FA0009093C60008958091C00087FFFCCF809118
:107FB000C00084FD01C0A8958091C6000895E0E648
:107FC000F0E098E1908380830895EDDF803219F02E
:107FD00088E0F5DFFFCF84E1DECF1F93182FE3DFCA
:107FE0001150E9F7F2DF1F91089580E0E8DFEE27F6
:047FF000FF270994CA
:027FFE00040479
:00000001FF
